:100000006F00C03B00000000300400002E04000020
:1000100000000000000000000000000000000000E0
:1000200000000000000000000000000000000000D0
:100030002E040000000000002E040000000000005C
:100040002E0400002E0400002E0400002E040000E8
:10005000D40800002E0400002E0400002E0400002E
:100060002E0400002E0400002E0400002E040000C8
:100070002E0400002E0400002E0400002E040000B8
:100080002E0400002E0400002E0400002E040000A8
:100090002E0400002E0400002E04000000000000CA
:1000A000634E050263C305042E86AA857D5515C2DD
:1000B00085466378B6006356C00006068606E36C84
:1000C000B6FE014563E4C500918D558D858205829C
:1000D000F5FA82808682C93F2E8582823305A04050
:1000E0006347B000B305B040C1B7B305B0408682E6
:1000F000653F3305A0408282868263C7050063495D
:1001000005005D372E858282B305B040E35B05FEB6
:100110003305A040513F3305B040828200003111C9
:1001200026C406C822C6AE84AA87B28599C60143F2
:1001300063D79600B684054319A00143A68633848D
:10014000964063530400014422863A853EC21AC099
:10015000E929024392472A87B30685000146B38501
:10016000C4406342B00463D304008144B385960065
:100170003385E540630403026372B7029307A0026C
:10018000A38FF5FE9386F5FF637AD700238FF5FEE4
:100190009386E5FF6374D700A38EF5FEC240324418
:1001A000A24451018280B385C70003C50500B38511
:1001B000C60005062380A5005DB7011106CE22CC3E
:1001C00026CA02C02A836357050089E685473303A0
:1001D000A0403EC0058A1304100619C2130410047F
:1001E000BA8459141A853AC81AC22EC61AC4DD3503
:1001F000A5472243B24542479376F50F63E1A70630
:100200009386060393F6F60F938714002380D40099
:100210001A853AC83EC62EC4413D9246A245B24711
:1002200042472A8363FBB602824699C69306D002F0
:100230002380D700938724003385E7409356F50148
:10024000AA962380070085860146FD17634BD600DA
:10025000F2406244D24405618280BE8461B7A296B6
:1002600055B7B305C70083C2070003C305000506E1
:100270002380550023806700C9BF3706002003276D
:100280000600930600020145B70500801313E7013D
:100290009317A700B3C76700B98F1313F701ED8F4A
:1002A000B3C767000583FD1606055D8F93F6F60F4D
:1002B000FD835D8DE1FE2320E6008280B70700E02C
:1002C0009387470F9C438280011122CC06CE26CA19
:1002D0002AC002C82E84F9E1B70700E09387470FD0
:1002E0009C4389C793F7070891E3C93FF2402285F1
:1002F0006244D24405618280B30694401D4636872D
:100300006353D6001D473776020013061610832567
:10031000030013F505083DED81C91AC63AC436C27B
:10032000713F32432247924693A63600014699E236
:100330001306D7FF8247938534000808BE951AC478
:100340003AC2ED2C42468247B70600E022431247EC
:100350009386860F90C28D453386970081468342EF
:100360000600850693870601338527002300550084
:100370006305D7000506E394B6FE9306470093E6AF
:1003800006F82308D100C246BA942320D300E3C55F
:1003900084F6A9BF7D1625FE268489BF370300E0B9
:1003A00081441303430FE5B7511122C206C42E84C2
:1003B000213FA24022851244310182809701002012
:1003C0009381414413810100130500087310053027
:1003D0008D46170500001305E5C2558D7310553085
:1003E000138581809385018701466356B50010C14E
:1003F0001105E34EB5FE17150000130525A297055C
:100400000020938525C0138681806388C500144130
:1004100094C111059105E39AC5FEB7F700E01547B1
:1004200098C39307A06B739017347300203001A01A
:10043000371702401C47B7068000D58F1CC7AA8714
:1004400003C7070001E73385A74082808507CDBF3A
:10045000130141FAA2CAA6C886CC2AC02EC2328491
:10046000B68402CA8347040093061400A30FF10068
:1004700081EBE64056445245C6441301C1058280D3
:1004800036C6130750026380E7021246824785454D
:100490001305F1018297B24626C43684D247A2449E
:1004A000AA973ECAC1B70347140013060003930678
:1004B0000003A30FE10032C6930724006312D7089C
:1004C0003E8481468147A54511A81397270005045E
:1004D000BA970347F4FF8607B2978546130607FDD0
:1004E0001375F60FE3F3A5FE99C2A30FE1003EC812
:1004F000E14663D3F60036C81306C006814663188A
:10050000C7000347040085460504A30FE100034626
:10051000F101130740066305E6066367C702930708
:1005200080056300F60A93073006630DF60A31D2A0
:100530001246824785451305F101829726C4B9BF4B
:100540009306000236C6ADBF13075007630AE602E2
:10055000130780076307E60613073007E31AE6FC74
:100560003ECC9387440084403EC42685C93DE24783
:10057000AA856356F008C2463246381826851DA063
:10058000938744003EC495C61306B6F818109336F8
:10059000160088400146A9450D31C246324638183A
:1005A000AA850810AD3E1246AA8528188247829770
:1005B000F5B59307500718108546E30CF6FC814605
:1005C000C9BF8840130686FA9387440018108546F1
:1005D00013361600C1453EC4CD36C2463246AA8502
:1005E0003818C1B7938744003EC49C40C246324687
:1005F000A30FF100381885451305F10165B71246C0
:1006000026856DB71301C1FD32CA2A862EC836CCA5
:10061000814514081305803A06C63ACE3ED036C04E
:10062000053DB2401301410282802A96AA87639356
:10063000C70082802380B7008507D5BF8147631339
:10064000F60082803387F500834607003307F50004
:1006500085072300D700E5B7B7270240054798C3B1
:10066000B71702403707080123A20700130717082E
:1006700098C337079F0098C7371702401C439396CB
:100680006700E3DD06FE5C43B7160240F19B93E78B
:1006900027005CC32147DC42B18BE39EE7FEB7072E
:1006A00000E09387870F23A00700B70700E0938738
:1006B000470F1307000898C38280511106C422C255
:1006C00026C0593FB75734129387876737070020F2
:1006D0002320F700B7F700E09847B167938707B882
:1006E0003E97B7F600E09C46998FE3CE07FE8564FF
:1006F00069362A845936B345A400C205C1851385DD
:1007000084D00937F5B7211122C826C606CA931727
:1007100056003A8410C33E971853B2841305B004B0
:1007200019E31305300C54440947639EE6023EC2A8
:100730002AC0B929B7066745372702409386361283
:1007400014D7B796EFCD9386B69A14D7916654C74F
:10075000924793060008024514CB37F700E0B7062E
:1007600000802328D7D0A2979C57C58FB9C385474F
:100770006398F40483A6C18083A7818002C4639E2A
:10078000F60023889180AA86014628009145012918
:10079000D2404244B2446101828083A78180A38811
:1007A000018083A78180850793F7F70F23A4F18049
:1007B000D9BF5C4C4C54185C8E079D8D6347B000CC
:1007C0004244D240B2446101E1A6A14663D3B600DF
:1007D000A1454244D240B244AA8601463305F700FF
:1007E000610175AE0323070093175300BA97C853EE
:1007F0006318C50413351500C8D3631803001C47DC
:10080000B1E7F5168D4763FDD7025C4795CB6317BB
:1008100003029441B71734AA9387D72F6390F60247
:10082000DC41B7D6DD009386B6CBA207A1836397E0
:10083000D7009D475CCF89475CC719A023260700D6
:100840009306200D09468145014591AE83D64500AA
:1008500083D7250003D56500C206DD8E83D705004A
:10086000232E0700232C0702232407022326070236
:10087000232407008583130600496398C700930764
:10088000D03FE39FF6FA854745BF13060034639DCA
:10089000C7028567938787DB938507062A83904382
:1008A0006310D602D04310DF03C6870093120601FF
:1008B00093D20201637355001A864206418250D7D3
:1008C000B107E39EB7FCADBF13060028E39AC7F655
:1008D00054C3BDB75D712AC03ECAB71701409387A4
:1008E0000740884761892EC232C436C63AC826CE30
:1008F00012D837320140130282C58C47E18963095F
:10090000052288476189631BB5028847618963179F
:10091000B502884761896313B50288476189631FFF
:10092000B50088476189631BB500884761896317F3
:10093000B500884761896313B50009A022CC014640
:1009400016D01AD223200200884761896301051856
:100950002D8DA98D09A009C909A0804761882D8C1A
:1009600011E009A0C5B701001ED406DAA14419445C
:1009700001000100C166FD16296705079303F10315
:1009800093020008010001002320020088476189CA
:10099000630F05122D8DA98D010013351500060674
:1009A000498E7D15498C1D887D14FD14E1F4930456
:1009B00000061375C60009C55147F946130000002B
:1009C0002380C3009383130023200200884761899A
:1009D0002D8D0DC5A98D09A01944BDC91395F6012A
:1009E0007D858582798DA98E0582FD1413F57400AD
:1009F00061D9010001000100E1F8D1A87D1413F5CF
:100A000016007D15798D8582A98E058213660608EC
:100A100011C8FD1413F5740045D501000100010053
:100A2000C5F475A0FD1413F5740009E52380C30017
:100A300093831300232002008847618911C92D8DFB
:100A4000A98D51C5194401000D457D157DFDADFCF5
:100A500013F574002DED9305F103882185059700AA
:100A6000000093800007930755FB425217F7FF1FC2
:100A70001307875AC9C785EA92211375F6071D82A5
:100A80003D8A09446375860401C540236311A404AB
:100A9000938747FCC1CFC517639407006FF0BFC6AB
:100AA0008917B5CB2DA02D640504818E8DE2B38608
:100AB000B3408506938787F80146639407006FF07B
:100AC0007FD2C5170546639407006FF0BFD162441B
:100AD000F24482521253A253D250F244425222465E
:100AE000B2464247924509A0B70701409387474164
:100AF000214588C30245D24761617300203010430D
:100B000016063A967106484285452D8D48C2084220
:100B1000050508C26DBF10C385450CC716063A9679
:100B20000CD281454CCE0CDE4CD255B710A345B744
:100B300037F500E0210517F7FF1F1307E74D0C4BB2
:100B4000104110CB0D8E50CBB165938505B80D8E3D
:100B50008567938707FAE352F6F8FD7793870706D0
:100B6000E34DF6F60C4FB2950CCFA5D937170240DE
:100B70000843135635007D8A930770F07D8DB305C9
:100B8000B04013D6954041060E06518D08C3B1B74B
:100B9000AA86170500001305A51389452E86411165
:100BA00022C026C2B7170140938707409843B71465
:100BB000F0FFFD14658FB7240200458FB7040800CD
:100BC000C10484CB98C337031800610312C49E0686
:100BD00013E40604814209E6A962850241667D1696
:100BE0008E05AE8337320140130282C51947BD45D9
:100BF00011A00100A2860580858A7D1781E6B3C415
:100C00006400194784CBFD1591C58D46FD16FDFE88
:100C10000100CDB79E85ADC5FD1563940200416608
:100C20007D16010000210505A286858A81CE0580FA
:100C300093761600FD16B3F656000582358E7D17A5
:100C400025CF29A805809316F601FD86B3C464005C
:100C500084CB19470582B3F65600358E81C993F6C9
:100C60007500FD15E1D209A0C1B70100638A020039
:100C700093D282009D45E38902FA1344F6FF6DB7D3
:100C80008D46FD16FDFEB704180084CBA146FD1667
:100C9000FDFEB7041000A10484CB8443B7D6FCFF4B
:100CA000FD16F58CB7460400D58C84C302449244EB
:100CB00022424101828001009146FD16FDFEB3C42F
:100CC000640019470100010084CB49BF0000000007
:100CD00008033000300031000000000014036900F8
:100CE0006E0073006F006D006E00690061006300AC
:100CF000000000000E034100440042006500740043
:100D0000610000000403090425640A0005010906C6
:100D1000A10175019508050719E029E715002501CE
:100D20008102950175088103950575010508190172
:100D30002905910295017503910395067508150023
:100D400025A70507190029A78100C0000501090290
:100D5000A1010901A10005091901290315002501B7
:100D6000950375018102950175058103050109301F
:100D7000093109381581257F750895038106C0C0A2
:100D800009023B0002010080640904000001030124
:100D9000020009211001000122340007058103042B
:100DA000000600001201100100000008091203C033
:100DB000020001020301000000010000A40D000078
:100DC0001200000000020000800D00002200000060
:100DD000002200004C0D0000340000000022010041
:100DE0000C0D00003F00000000030000040D000097
:100DF0000400000001030904F40C00000E000000D0
:100E000002030904DC0C00001400000003030904C1
:080E1000D00C000008000000F6
:080E18002FA37A740000000012
:00000001FF
