:100000006F004039000000000604000004040000F6
:1000100000000000000000000000000000000000E0
:1000200000000000000000000000000000000000D0
:1000300004040000000000000404000000000000B0
:100040000404000004040000040400000404000090
:100050000404000004040000040400000404000080
:100060000404000004040000040400000404000070
:100070000404000004040000040400000404000060
:100080000404000004040000040400000404000050
:100090000404000004040000040400000000000048
:1000A000634E050263C305042E86AA857D5515C2DD
:1000B00085466378B6006356C00006068606E36C84
:1000C000B6FE014563E4C500918D558D858205829C
:1000D000F5FA82808682C93F2E8582823305A04050
:1000E0006347B000B305B040C1B7B305B0408682E6
:1000F000653F3305A0408282868263C7050063495D
:1001000005005D372E858282B305B040E35B05FEB6
:100110003305A040513F3305B0408282000099C6AC
:10012000014363D7B600B685054319A00143AE86E7
:100130008D8EBA87B383E600B382F340634A5004DE
:1001400093C7F6FFFD87FD8EBA9681473386F5404B
:10015000B382F6006342C00493C7F5FFFD87FD8DAF
:10016000B6953385E540630403026372B7029307D3
:10017000A002A38FF5FE9386F5FF637AD700238F45
:10018000F5FE9386E5FF6374D700A38EF5FE8280AB
:100190008507A38FC7FE4DB73306F500034606005B
:1001A00085072380C2005DB72A832E8501CE832276
:1001B000060001475C426348A700238007004842CD
:1001C0003305554082800C461442FD15AE96E386F9
:1001D000D7FE9386170054C2B306E30083C6060019
:1001E00005072380D700F9B7011106CE22CC26CA15
:1001F00002C02A836357050089E685473303A04080
:100200003EC0058A1304100619C213041004BA84F0
:1002100059141A853AC81AC22EC61AC4653DA54794
:100220002243B24542479376F50F63E1A7069386D2
:10023000060393F6F60F938714002380D4001A85E3
:100240003AC83EC62EC48D359246A245B2474247B3
:100250002A8363FBB602824699C69306D0022380A6
:10026000D700938724003385E7409356F501AA967B
:100270002380070085860146FD17634BD600F240B8
:100280006244D24405618280BE8461B7A29655B7AC
:10029000B305C70083C2070003C30500050623801A
:1002A000550023806700C9BFB70700E083A7470F49
:1002B0008280211122C806CA26C602C42E84DDED22
:1002C000B70700E083A7470F89C793F7070891E3B3
:1002D000E13FD24022854244B24461018280B307AB
:1002E00094401D476353F700BA8737770200B7067B
:1002F00000E0130717109386460F90429375060887
:10030000A5E111C62AC23EC04537124582473400D6
:100310000D47B685634AF704A246370700E00D464D
:10032000232CD70EB3069500014783C206000507AC
:100330003383E500230053006385E7008506E31659
:10034000C7FE13874700136707F82304E100A2469E
:10035000370700E0BE94232AD70EE3C284F895BF86
:100360007D1741FF2684B5B73386E4002A960346FD
:10037000060005078506A38FC6FE69BF8144F1BF4D
:10038000611122C006C22E842D379240228502447C
:1003900021018280970100209381C14613810100D1
:1003A00013050008731005308D461705000013056E
:1003B00065C5558D731055301385418093854180F7
:1003C00001466356B50010C11105E34EB5FE130595
:1003D000007F970500209385E5C2138641806388DE
:1003E000C500144194C111059105E39AC5FEB7F704
:1003F00000E0054798C381479307807773901734CF
:100400007300203001A0371702401C47B706800058
:10041000D58F1CC7AA8703C7070001E73385A7400C
:1004200082808507CDBF130141FAA2CAA6C886CC37
:100430002AC02EC23284B68409E59307801A02C20C
:100440003EC002CA8347040013071400A30FF10043
:1004500081EBE64056445245C6441301C1058280F3
:100460003AC6930650026380D702124682478545FA
:100470001305F1018297324726C43A84D247A24439
:10048000AA973ECAC1B78347140093060003130717
:100490002400A30FF1003EC66393D7083A84814637
:1004A0000147A54519A893172700BA9786070504A1
:1004B0003307F6008347F4FF8546138607FD13755F
:1004C000F60FE3F2A5FE99C2A30FF1003AC8E14688
:1004D00063D3E60036C81306C00681466398C7009A
:1004E0008347040085460504A30FF1000346F1018C
:1004F000930740066305F60663E7C7029307800586
:100500006300F60A93073006630DF60A39D21246E5
:10051000824785451305F101829726C485B7930666
:10052000000236C6A5BF93075007630AF602930779
:1005300080076307F60693073007E31AF6FC9387F4
:10054000440084403ACC3EC42685E9356247AA85FA
:100550006356E008C2463246381826851DA09387A8
:1005600044003EC495C61306B6F81810933616001C
:1005700088400146A9458D39C24632463818AA85B9
:100580000810713E1246AA85281882478297FDB549
:100590009307500718108546E30CF6FC8146C9BF47
:1005A0008840130686FA9387440018108546133650
:1005B0001600C1453EC40D39C2463246AA853818D8
:1005C000C1B7938744003EC49C40C2463246A30F45
:1005D000F100381885451305F10165B712462685E7
:1005E0006DB7111132C62A862EC436C88145340033
:1005F0001305003806C23ACA3ECC36C02D359240AB
:1006000071018280130181FC26D6AA84C204C184B0
:1006100093D7F441B3C6F400935205419D8E93A73E
:10062000140022D8B307F04013A4120093E7170078
:10063000330480403EC0936714003EC282477D85EC
:1006400033C6A200098E06DAFD173387C64085EB54
:1006500081479307407B3EC49247FD178DE7814752
:100660009307407C3EC601440143631293026390AA
:100670008202D2504254B2541301810382808147D6
:100680009307C07BC9BF81479307807CE1BF931369
:100690001700B305C04063D975028247A2450145E2
:1006A0003E934203118F135303411305007D16D26D
:1006B0001ED036CE32CC3ACA1AC82537925282534F
:1006C000F246624652474243E3D1D3FA9247B245DB
:1006D00001453697A2971305007D16D01ACE32CC6D
:1006E00036CA3AC813940701ED3D825272436246FE
:1006F000D2464247418495BF511106C422C226C04A
:10070000AA84093B2A84AA85268565360145854544
:100710001305807D793EA2401305140012448244E3
:1007200031018280B7270240054798C3B7170240BE
:100730003707080123A207001307170898C33707D4
:100740009F0098C7984393166700E3DD06FED843E1
:10075000B7160240719B13672700D8C32147DC42BC
:10076000B18BE39EE7FEB70700E023AC070E13074B
:10077000000823AAE70E8280511106C4653701459F
:100780001305C07D953F41656D15AD3D01451305D0
:10079000007E9D373705FBFFB53501451305807E8B
:1007A000A13FB707002003A50700A93DA2400145CE
:1007B0003101828072696768740000006C6566743C
:1007C0000000000075700000646F776E000000008C
:1007D000537465703A2025730A000000352C3000F0
:1007E0000A0A302C350000000A0A352C35000000BA
:0407F000FBFFFBFF11
:00000001FF
